{
    "contractName": "User",
    "abi": [
        {
            "inputs": [
                {
                    "internalType": "address",
                    "name": "_fileAppAddress",
                    "type": "address"
                },
                {
                    "internalType": "string",
                    "name": "_username",
                    "type": "string"
                },
                {
                    "internalType": "string",
                    "name": "_ipfsId",
                    "type": "string"
                },
                {
                    "internalType": "address",
                    "name": "_owner",
                    "type": "address"
                },
                {
                    "internalType": "string",
                    "name": "_publicKey",
                    "type": "string"
                }
            ],
            "stateMutability": "nonpayable",
            "type": "constructor"
        },
        {
            "anonymous": false,
            "inputs": [
                {
                    "indexed": false,
                    "internalType": "address",
                    "name": "groupAddress",
                    "type": "address"
                }
            ],
            "name": "GroupCreated",
            "type": "event"
        },
        {
            "anonymous": false,
            "inputs": [
                {
                    "indexed": false,
                    "internalType": "string",
                    "name": "key",
                    "type": "string"
                }
            ],
            "name": "InviteAccepted",
            "type": "event"
        },
        {
            "anonymous": false,
            "inputs": [
                {
                    "indexed": false,
                    "internalType": "string",
                    "name": "groupName",
                    "type": "string"
                },
                {
                    "indexed": true,
                    "internalType": "address",
                    "name": "groupAddress",
                    "type": "address"
                },
                {
                    "indexed": false,
                    "internalType": "enum Group.Permission",
                    "name": "permission",
                    "type": "uint8"
                }
            ],
            "name": "newInvite",
            "type": "event"
        },
        {
            "inputs": [
                {
                    "internalType": "address",
                    "name": "groupAddress",
                    "type": "address"
                }
            ],
            "name": "acceptInvite",
            "outputs": [
                {
                    "internalType": "string",
                    "name": "",
                    "type": "string"
                }
            ],
            "stateMutability": "nonpayable",
            "type": "function"
        },
        {
            "inputs": [
                {
                    "internalType": "address",
                    "name": "groupAddress",
                    "type": "address"
                },
                {
                    "internalType": "string",
                    "name": "groupName",
                    "type": "string"
                },
                {
                    "internalType": "enum Group.Permission",
                    "name": "permission",
                    "type": "uint8"
                }
            ],
            "name": "addGroupInvite",
            "outputs": [],
            "stateMutability": "nonpayable",
            "type": "function"
        },
        {
            "inputs": [
                {
                    "internalType": "string",
                    "name": "_groupName",
                    "type": "string"
                },
                {
                    "internalType": "uint32",
                    "name": "consensusThreshold",
                    "type": "uint32"
                },
                {
                    "internalType": "uint256",
                    "name": "precision",
                    "type": "uint256"
                },
                {
                    "internalType": "string",
                    "name": "ipfsCid",
                    "type": "string"
                },
                {
                    "internalType": "string",
                    "name": "encryptedKey",
                    "type": "string"
                }
            ],
            "name": "createGroup",
            "outputs": [
                {
                    "internalType": "address",
                    "name": "",
                    "type": "address"
                }
            ],
            "stateMutability": "nonpayable",
            "type": "function"
        },
        {
            "inputs": [],
            "name": "fileAppAddress",
            "outputs": [
                {
                    "internalType": "address",
                    "name": "",
                    "type": "address"
                }
            ],
            "stateMutability": "view",
            "type": "function"
        },
        {
            "inputs": [],
            "name": "getGroupInvites",
            "outputs": [
                {
                    "components": [
                        {
                            "internalType": "string",
                            "name": "groupName",
                            "type": "string"
                        },
                        {
                            "internalType": "address",
                            "name": "groupAddress",
                            "type": "address"
                        },
                        {
                            "internalType": "enum Group.Permission",
                            "name": "permission",
                            "type": "uint8"
                        }
                    ],
                    "internalType": "struct User.GroupInviteInfo[]",
                    "name": "",
                    "type": "tuple[]"
                }
            ],
            "stateMutability": "view",
            "type": "function"
        },
        {
            "inputs": [],
            "name": "getGroups",
            "outputs": [
                {
                    "internalType": "address[]",
                    "name": "",
                    "type": "address[]"
                }
            ],
            "stateMutability": "view",
            "type": "function"
        },
        {
            "inputs": [
                {
                    "internalType": "uint256",
                    "name": "",
                    "type": "uint256"
                }
            ],
            "name": "groups",
            "outputs": [
                {
                    "internalType": "address",
                    "name": "",
                    "type": "address"
                }
            ],
            "stateMutability": "view",
            "type": "function"
        },
        {
            "inputs": [],
            "name": "ipfsId",
            "outputs": [
                {
                    "internalType": "string",
                    "name": "",
                    "type": "string"
                }
            ],
            "stateMutability": "view",
            "type": "function"
        },
        {
            "inputs": [],
            "name": "leaveApp",
            "outputs": [],
            "stateMutability": "nonpayable",
            "type": "function"
        },
        {
            "inputs": [
                {
                    "internalType": "address",
                    "name": "groupAddress",
                    "type": "address"
                }
            ],
            "name": "leaveGroup",
            "outputs": [],
            "stateMutability": "nonpayable",
            "type": "function"
        },
        {
            "inputs": [],
            "name": "owner",
            "outputs": [
                {
                    "internalType": "address",
                    "name": "",
                    "type": "address"
                }
            ],
            "stateMutability": "view",
            "type": "function"
        },
        {
            "inputs": [
                {
                    "internalType": "address",
                    "name": "groupAddress",
                    "type": "address"
                },
                {
                    "internalType": "string",
                    "name": "change",
                    "type": "string"
                },
                {
                    "internalType": "string",
                    "name": "cid",
                    "type": "string"
                }
            ],
            "name": "propose",
            "outputs": [],
            "stateMutability": "nonpayable",
            "type": "function"
        },
        {
            "inputs": [],
            "name": "publicKey",
            "outputs": [
                {
                    "internalType": "string",
                    "name": "",
                    "type": "string"
                }
            ],
            "stateMutability": "view",
            "type": "function"
        },
        {
            "inputs": [
                {
                    "internalType": "address",
                    "name": "groupAddress",
                    "type": "address"
                }
            ],
            "name": "rejectInvite",
            "outputs": [],
            "stateMutability": "nonpayable",
            "type": "function"
        },
        {
            "inputs": [],
            "name": "username",
            "outputs": [
                {
                    "internalType": "string",
                    "name": "",
                    "type": "string"
                }
            ],
            "stateMutability": "view",
            "type": "function"
        }
    ],
    "bytecode": "60806040523480156200001157600080fd5b50604051620045ac380380620045ac833981016040819052620000349162000184565b600080546001600160a01b0319166001600160a01b03871617905560016200005d8582620002cb565b5060026200006c8482620002cb565b50600480546001600160a01b0319166001600160a01b0384161790556003620000968282620002cb565b50505050505062000397565b80516001600160a01b0381168114620000ba57600080fd5b919050565b634e487b7160e01b600052604160045260246000fd5b600082601f830112620000e757600080fd5b81516001600160401b0380821115620001045762000104620000bf565b604051601f8301601f19908116603f011681019082821181831017156200012f576200012f620000bf565b816040528381526020925086838588010111156200014c57600080fd5b600091505b8382101562000170578582018301518183018401529082019062000151565b600093810190920192909252949350505050565b600080600080600060a086880312156200019d57600080fd5b620001a886620000a2565b60208701519095506001600160401b0380821115620001c657600080fd5b620001d489838a01620000d5565b95506040880151915080821115620001eb57600080fd5b620001f989838a01620000d5565b94506200020960608901620000a2565b935060808801519150808211156200022057600080fd5b506200022f88828901620000d5565b9150509295509295909350565b600181811c908216806200025157607f821691505b6020821081036200027257634e487b7160e01b600052602260045260246000fd5b50919050565b601f821115620002c657600081815260208120601f850160051c81016020861015620002a15750805b601f850160051c820191505b81811015620002c257828155600101620002ad565b5050505b505050565b81516001600160401b03811115620002e757620002e7620000bf565b620002ff81620002f884546200023c565b8462000278565b602080601f8311600181146200033757600084156200031e5750858301515b600019600386901b1c1916600185901b178555620002c2565b600085815260208120601f198616915b82811015620003685788860151825594840194600190910190840162000347565b5085821015620003875787850151600019600388901b60f8161c191681555b5050505050600190811b01905550565b61420580620003a76000396000f3fe60806040523480156200001157600080fd5b5060043610620001095760003560e01c8063695c3aea11620000a3578063d436fcb0116200006e578063d436fcb01462000213578063dbdb5563146200022c578063e9896cae1462000243578063eb2bd4fd146200024d57600080fd5b8063695c3aea14620001b85780638da5cb5b14620001cf57806396324bd414620001e3578063c72b517614620001fa57600080fd5b80635350ada811620000e45780635350ada8146200014857806361fac54d146200015f57806363ffab3114620001815780636472100e146200018b57600080fd5b806314a61234146200010e5780632a0cc4a4146200012757806343f6f352146200013e575b600080fd5b620001256200011f36600462000f5e565b62000264565b005b620001256200013836600462001054565b620003ef565b6200012562000537565b6200012562000159366004620010c1565b62000566565b6200016962000601565b60405162000178919062001192565b60405180910390f35b6200016962000697565b6000546200019f906001600160a01b031681565b6040516001600160a01b03909116815260200162000178565b6200019f620001c9366004620011a7565b620006a6565b6004546200019f906001600160a01b031681565b6200019f620001f436600462001262565b620007c2565b62000204620007ed565b6040516200017891906200127c565b6200021d6200087f565b60405162000178919062001304565b620001696200023d36600462000f5e565b62000aa4565b6200016962000d21565b620001256200025e36600462000f5e565b62000d30565b6004546001600160a01b031633146200029a5760405162461bcd60e51b815260040162000291906200139e565b60405180910390fd5b6001600160a01b038116600090815260066020526040812090620002bf828262000edb565b5060010180546001600160a81b031916905560005b600754811015620003eb57816001600160a01b031660078281548110620002ff57620002ff620013ea565b6000918252602090912001546001600160a01b031603620003d657600780546200032c9060019062001416565b815481106200033f576200033f620013ea565b600091825260209091200154600780546001600160a01b0390921691839081106200036e576200036e620013ea565b9060005260206000200160006101000a8154816001600160a01b0302191690836001600160a01b031602179055506007805480620003b057620003b062001432565b600082815260209020810160001990810180546001600160a01b03191690550190555050565b80620003e28162001448565b915050620002d4565b5050565b6040518060600160405280838152602001846001600160a01b03168152602001826003811115620004245762000424620012cb565b90526001600160a01b0384166000908152600660205260409020815181906200044e9082620014ef565b5060208201516001820180546001600160a01b039092166001600160a01b03198316811782556040850151926001600160a81b03191617600160a01b8360038111156200049f576200049f620012cb565b021790555050600780546001810182556000919091527fa66cc928b5edb82af9bd49922954155ab7b0942694bea4ce44661d9a8736c6880180546001600160a01b0319166001600160a01b0386169081179091556040519091507ffadc5c1b35009154f2aacd4f6169fad7d928cf7e58e36cfa02f41898e2b4374e906200052a9085908590620015bc565b60405180910390a2505050565b6004546001600160a01b03163314620005645760405162461bcd60e51b815260040162000291906200139e565b565b6004546001600160a01b03163314620005935760405162461bcd60e51b815260040162000291906200139e565b60405163982366d160e01b815283906001600160a01b0382169063982366d190620005c790309087908790600401620015e2565b600060405180830381600087803b158015620005e257600080fd5b505af1158015620005f7573d6000803e3d6000fd5b5050505050505050565b60018054620006109062001464565b80601f01602080910402602001604051908101604052809291908181526020018280546200063e9062001464565b80156200068f5780601f1062000663576101008083540402835291602001916200068f565b820191906000526020600020905b8154815290600101906020018083116200067157829003601f168201915b505050505081565b60038054620006109062001464565b6004546000906001600160a01b03163314620006d65760405162461bcd60e51b815260040162000291906200139e565b60008060009054906101000a90046001600160a01b0316873388888888604051620007019062000f1d565b62000713979695949392919062001626565b604051809103906000f08015801562000730573d6000803e3d6000fd5b50600580546001810182556000919091527f036b6384b5eca791c62761152d0c79bb0604c104a5fb6f4eb0703f3154bb3db00180546001600160a01b0319166001600160a01b03831690811790915560405190815290915081907f1f2fa2c893637aefd4d8cd79504d6c14b955233bcd2e89aece337594793ecb2e9060200160405180910390a1979650505050505050565b60058181548110620007d357600080fd5b6000918252602090912001546001600160a01b0316905081565b6004546060906001600160a01b031633146200081d5760405162461bcd60e51b815260040162000291906200139e565b60058054806020026020016040519081016040528092919081815260200182805480156200087557602002820191906000526020600020905b81546001600160a01b0316815260019091019060200180831162000856575b5050505050905090565b6004546060906001600160a01b03163314620008af5760405162461bcd60e51b815260040162000291906200139e565b60075460009067ffffffffffffffff811115620008d057620008d062000f83565b6040519080825280602002602001820160405280156200092557816020015b6200091160408051606080820183528152600060208201819052909182015290565b815260200190600190039081620008ef5790505b50905060005b60075481101562000a9e576006600060078381548110620009505762000950620013ea565b60009182526020808320909101546001600160a01b031683528201929092526040908101909120815160608101909252805482908290620009919062001464565b80601f0160208091040260200160405190810160405280929190818152602001828054620009bf9062001464565b801562000a105780601f10620009e45761010080835404028352916020019162000a10565b820191906000526020600020905b815481529060010190602001808311620009f257829003601f168201915b505050918352505060018201546001600160a01b0381166020830152604090910190600160a01b900460ff16600381111562000a505762000a50620012cb565b600381111562000a645762000a64620012cb565b8152505082828151811062000a7d5762000a7d620013ea565b6020026020010181905250808062000a959062001448565b9150506200092b565b50905090565b6004546060906001600160a01b0316331462000ad45760405162461bcd60e51b815260040162000291906200139e565b60058054600181019091557f036b6384b5eca791c62761152d0c79bb0604c104a5fb6f4eb0703f3154bb3db00180546001600160a01b0319166001600160a01b03841690811790915560009081526006602052604081209062000b38828262000edb565b5060010180546001600160a81b031916905560005b60075481101562000c6657826001600160a01b03166007828154811062000b785762000b78620013ea565b6000918252602090912001546001600160a01b03160362000c51576007805462000ba59060019062001416565b8154811062000bb85762000bb8620013ea565b600091825260209091200154600780546001600160a01b03909216918390811062000be75762000be7620013ea565b9060005260206000200160006101000a8154816001600160a01b0302191690836001600160a01b03160217905550600780548062000c295762000c2962001432565b600082815260209020810160001990810180546001600160a01b031916905501905562000c66565b8062000c5d8162001448565b91505062000b4d565b50604051632737e30160e11b815233600482015282906000906001600160a01b03831690634e6fc602906024016000604051808303816000875af115801562000cb3573d6000803e3d6000fd5b505050506040513d6000823e601f3d908101601f1916820160405262000cdd91908101906200169d565b90507f94a5c6d6c2ffb66f276f1d867569f067f4303bfa3beaa9cfcef6d9dfee34e3ee8160405162000d10919062001192565b60405180910390a19150505b919050565b60028054620006109062001464565b6004546001600160a01b0316331462000d5d5760405162461bcd60e51b815260040162000291906200139e565b60005b60055481101562000e7957816001600160a01b03166005828154811062000d8b5762000d8b620013ea565b6000918252602090912001546001600160a01b03160362000e64576005805462000db89060019062001416565b8154811062000dcb5762000dcb620013ea565b600091825260209091200154600580546001600160a01b03909216918390811062000dfa5762000dfa620013ea565b9060005260206000200160006101000a8154816001600160a01b0302191690836001600160a01b03160217905550600580548062000e3c5762000e3c62001432565b600082815260209020810160001990810180546001600160a01b031916905501905562000e79565b8062000e708162001448565b91505062000d60565b5060405163058e524d60e11b815230600482015281906001600160a01b03821690630b1ca49a90602401600060405180830381600087803b15801562000ebe57600080fd5b505af115801562000ed3573d6000803e3d6000fd5b505050505050565b50805462000ee99062001464565b6000825580601f1062000efa575050565b601f01602090049060005260206000209081019062000f1a919062000f2b565b50565b612ab2806200171e83390190565b5b8082111562000f42576000815560010162000f2c565b5090565b80356001600160a01b038116811462000d1c57600080fd5b60006020828403121562000f7157600080fd5b62000f7c8262000f46565b9392505050565b634e487b7160e01b600052604160045260246000fd5b604051601f8201601f1916810167ffffffffffffffff8111828210171562000fc55762000fc562000f83565b604052919050565b600067ffffffffffffffff82111562000fea5762000fea62000f83565b50601f01601f191660200190565b600082601f8301126200100a57600080fd5b8135620010216200101b8262000fcd565b62000f99565b8181528460208386010111156200103757600080fd5b816020850160208301376000918101602001919091529392505050565b6000806000606084860312156200106a57600080fd5b620010758462000f46565b9250602084013567ffffffffffffffff8111156200109257600080fd5b620010a08682870162000ff8565b925050604084013560048110620010b657600080fd5b809150509250925092565b600080600060608486031215620010d757600080fd5b620010e28462000f46565b9250602084013567ffffffffffffffff808211156200110057600080fd5b6200110e8783880162000ff8565b935060408601359150808211156200112557600080fd5b50620011348682870162000ff8565b9150509250925092565b60005b838110156200115b57818101518382015260200162001141565b50506000910152565b600081518084526200117e8160208601602086016200113e565b601f01601f19169290920160200192915050565b60208152600062000f7c602083018462001164565b600080600080600060a08688031215620011c057600080fd5b853567ffffffffffffffff80821115620011d957600080fd5b620011e789838a0162000ff8565b96506020880135915063ffffffff821682146200120357600080fd5b90945060408701359350606087013590808211156200122157600080fd5b6200122f89838a0162000ff8565b935060808801359150808211156200124657600080fd5b50620012558882890162000ff8565b9150509295509295909350565b6000602082840312156200127557600080fd5b5035919050565b6020808252825182820181905260009190848201906040850190845b81811015620012bf5783516001600160a01b03168352928401929184019160010162001298565b50909695505050505050565b634e487b7160e01b600052602160045260246000fd5b600481106200130057634e487b7160e01b600052602160045260246000fd5b9052565b60006020808301818452808551808352604092508286019150828160051b87010184880160005b838110156200139057603f19898403018552815160608151818652620013548287018262001164565b838b01516001600160a01b0316878c0152928901519291506200137c905088860183620012e1565b95880195935050908601906001016200132b565b509098975050505050505050565b6020808252602c908201527f4f6e6c7920636f6e7472616374206f776e65722063616e20616363657373207460408201526b3434b990333ab731ba34b7b760a11b606082015260800190565b634e487b7160e01b600052603260045260246000fd5b634e487b7160e01b600052601160045260246000fd5b818103818111156200142c576200142c62001400565b92915050565b634e487b7160e01b600052603160045260246000fd5b6000600182016200145d576200145d62001400565b5060010190565b600181811c908216806200147957607f821691505b6020821081036200149a57634e487b7160e01b600052602260045260246000fd5b50919050565b601f821115620014ea57600081815260208120601f850160051c81016020861015620014c95750805b601f850160051c820191505b8181101562000ed357828155600101620014d5565b505050565b815167ffffffffffffffff8111156200150c576200150c62000f83565b62001524816200151d845462001464565b84620014a0565b602080601f8311600181146200155c5760008415620015435750858301515b600019600386901b1c1916600185901b17855562000ed3565b600085815260208120601f198616915b828110156200158d578886015182559484019460019091019084016200156c565b5085821015620015ac5787850151600019600388901b60f8161c191681555b5050505050600190811b01905550565b604081526000620015d1604083018562001164565b905062000f7c6020830184620012e1565b6001600160a01b0384168152606060208201819052600090620016089083018562001164565b82810360408401526200161c818562001164565b9695505050505050565b600060018060a01b03808a16835260e060208401526200164a60e084018a62001164565b818916604085015263ffffffff8816606085015286608085015283810360a085015262001678818762001164565b91505082810360c08401526200168f818562001164565b9a9950505050505050505050565b600060208284031215620016b057600080fd5b815167ffffffffffffffff811115620016c857600080fd5b8201601f81018413620016da57600080fd5b8051620016eb6200101b8262000fcd565b8181528560208385010111156200170157600080fd5b620017148260208301602086016200113e565b9594505050505056fe60806040526000600955600c805461ffff191660011790553480156200002457600080fd5b5060405162002ab238038062002ab28339810160408190526200004791620002a4565b600080546001600160a01b0319166001600160a01b038916179055600162000070878262000412565b50600280546001600160a01b0319166001600160a01b0387169081179091556040805160808101825291825233602083015281016003815260209081018390526001600160a01b03808816600090815260068352604090819020845181549084166001600160a01b03199182161782559385015160018201805491909416948116851784559185015190939092916001600160a81b03191617600160a01b836003811115620001235762000123620004de565b0217905550606082015160028201906200013e908262000412565b5050600580546001810182556000919091527f036b6384b5eca791c62761152d0c79bb0604c104a5fb6f4eb0703f3154bb3db00180546001600160a01b0319166001600160a01b03881617905550600a805463ffffffff191663ffffffff8616179055600b8390556003620001b4838262000412565b5050505050505050620004f4565b80516001600160a01b0381168114620001da57600080fd5b919050565b634e487b7160e01b600052604160045260246000fd5b600082601f8301126200020757600080fd5b81516001600160401b0380821115620002245762000224620001df565b604051601f8301601f19908116603f011681019082821181831017156200024f576200024f620001df565b816040528381526020925086838588010111156200026c57600080fd5b600091505b8382101562000290578582018301518183018401529082019062000271565b600093810190920192909252949350505050565b600080600080600080600060e0888a031215620002c057600080fd5b620002cb88620001c2565b60208901519097506001600160401b0380821115620002e957600080fd5b620002f78b838c01620001f5565b97506200030760408b01620001c2565b965060608a0151915063ffffffff821682146200032357600080fd5b60808a015160a08b01519296509450808211156200034057600080fd5b6200034e8b838c01620001f5565b935060c08a01519150808211156200036557600080fd5b50620003748a828b01620001f5565b91505092959891949750929550565b600181811c908216806200039857607f821691505b602082108103620003b957634e487b7160e01b600052602260045260246000fd5b50919050565b601f8211156200040d57600081815260208120601f850160051c81016020861015620003e85750805b601f850160051c820191505b818110156200040957828155600101620003f4565b5050505b505050565b81516001600160401b038111156200042e576200042e620001df565b62000446816200043f845462000383565b84620003bf565b602080601f8311600181146200047e5760008415620004655750858301515b600019600386901b1c1916600185901b17855562000409565b600085815260208120601f198616915b82811015620004af578886015182559484019460019091019084016200048e565b5085821015620004ce5787850151600019600388901b60f8161c191681555b5050505050600190811b01905550565b634e487b7160e01b600052602160045260246000fd5b6125ae80620005046000396000f3fe608060405234801561001057600080fd5b50600436106100f45760003560e01c8063783cec80116100975780639a4aa128116100665780639a4aa12814610205578063c7f758a814610218578063c9d27afe14610238578063fad6036b1461024b57600080fd5b8063783cec80146101c45780638da5cb5b146101cc57806391d8b74c146101df578063982366d1146101f257600080fd5b80630d555c4e116100d35780630d555c4e146101515780634e6fc6021461016457806362564c48146101845780636472100e1461019957600080fd5b8062ce8e3e146100f9578063013cf08b146101175780630b1ca49a1461013c575b600080fd5b610101610263565b60405161010e9190611c63565b60405180910390f35b61012a610125366004611d03565b610498565b60405161010e96959493929190611d2c565b61014f61014a366004611da7565b6105fb565b005b61014f61015f366004611dd8565b6107e2565b610177610172366004611da7565b6108f3565b60405161010e9190611e0b565b61018c610c26565b60405161010e9190611ee0565b6000546101ac906001600160a01b031681565b6040516001600160a01b03909116815260200161010e565b610177610f23565b6002546101ac906001600160a01b031681565b61014f6101ed366004611f42565b610fb1565b61014f61020036600461201a565b611024565b61014f61021336600461208e565b6111cf565b61022b610226366004611d03565b611397565b60405161010e91906120fd565b61014f610246366004612110565b611603565b61025361196d565b60405161010e9493929190612145565b6060600033600090815260066020526040902060010154600160a01b900460ff16600381111561029557610295611bf3565b036102bb5760405162461bcd60e51b81526004016102b290612191565b60405180910390fd5b60055460009067ffffffffffffffff8111156102d9576102d9611f77565b60405190808252806020026020018201604052801561032a57816020015b60408051608081018252600080825260208083018290529282015260608082015282526000199092019101816102f75790505b50905060005b600554811015610492576006600060058381548110610351576103516121b8565b60009182526020808320909101546001600160a01b03908116845283820194909452604092830190912082516080810184528154851681526001820154948516928101929092529092909183019060ff600160a01b9091041660038111156103bb576103bb611bf3565b60038111156103cc576103cc611bf3565b81526020016002820180546103e0906121ce565b80601f016020809104026020016040519081016040528092919081815260200182805461040c906121ce565b80156104595780601f1061042e57610100808354040283529160200191610459565b820191906000526020600020905b81548152906001019060200180831161043c57829003601f168201915b505050505081525050828281518110610474576104746121b8565b6020026020010181905250808061048a9061221e565b915050610330565b50905090565b6007602052600090815260409020805481906104b3906121ce565b80601f01602080910402602001604051908101604052809291908181526020018280546104df906121ce565b801561052c5780601f106105015761010080835404028352916020019161052c565b820191906000526020600020905b81548152906001019060200180831161050f57829003601f168201915b505050600184015460028501805494956001600160a01b03909216949193509150610556906121ce565b80601f0160208091040260200160405190810160405280929190818152602001828054610582906121ce565b80156105cf5780601f106105a4576101008083540402835291602001916105cf565b820191906000526020600020905b8154815290600101906020018083116105b257829003601f168201915b505050506003830154600590930154919263ffffffff8082169364010000000090920416915060ff1686565b600033600090815260066020526040902060010154600160a01b900460ff16600381111561062b5761062b611bf3565b036106485760405162461bcd60e51b81526004016102b290612191565b600333600090815260066020526040902060010154600160a01b900460ff16600381111561067857610678611bf3565b148061068c57506001600160a01b03811633145b156107df5760005b60055481101561079557816001600160a01b0316600582815481106106bb576106bb6121b8565b6000918252602090912001546001600160a01b03160361078357600580546106e590600190612237565b815481106106f5576106f56121b8565b600091825260209091200154600580546001600160a01b039092169183908110610721576107216121b8565b9060005260206000200160006101000a8154816001600160a01b0302191690836001600160a01b03160217905550600580548061076057610760612250565b600082815260209020810160001990810180546001600160a01b03191690550190555b8061078d8161221e565b915050610694565b506001600160a01b038116600090815260066020526040812080546001600160a01b03191681556001810180546001600160a81b0319169055906107dc6002830182611b06565b50505b50565b600333600090815260066020526040902060010154600160a01b900460ff16600381111561081257610812611bf3565b1461081c57600080fd5b60006001600160a01b038316600090815260066020526040902060010154600160a01b900460ff16600381111561085557610855611bf3565b036108ac5760405162461bcd60e51b815260206004820152602160248201527f55736572206973206e6f742061206d656d626572206f66207468652067726f756044820152600760fc1b60648201526084016102b2565b6001600160a01b0382166000908152600660205260409020600101805482919060ff60a01b1916600160a01b8360038111156108ea576108ea611bf3565b02179055505050565b606060006001600160a01b038316600090815260046020526040902060010154600160a01b900460ff16600381111561092e5761092e611bf3565b1161096c5760405162461bcd60e51b815260206004820152600e60248201526d446964206e6f7420696e7669746560901b60448201526064016102b2565b6001600160a01b0382811660009081526004602090815260408083206006909252909120815481549084166001600160a01b031991821617825560018084018054918401805492909616928216831786555493949293600160a01b9081900460ff1693926001600160a81b0319909216909117908360038111156109f2576109f2611bf3565b0217905550600281810190610a09908401826122b4565b50506005805460018082019092557f036b6384b5eca791c62761152d0c79bb0604c104a5fb6f4eb0703f3154bb3db00180546001600160a01b0319166001600160a01b0386169081179091556000908152600460205260409020015460039150600160a01b900460ff1681811115610a8357610a83611bf3565b1480610ac5575060026001600160a01b038316600090815260046020526040902060010154600160a01b900460ff166003811115610ac357610ac3611bf3565b145b15610afa57600c805461ffff16906000610ade83612395565b91906101000a81548161ffff021916908361ffff160217905550505b6001600160a01b03821660009081526004602052604081206002018054610b20906121ce565b80601f0160208091040260200160405190810160405280929190818152602001828054610b4c906121ce565b8015610b995780601f10610b6e57610100808354040283529160200191610b99565b820191906000526020600020905b815481529060010190602001808311610b7c57829003601f168201915b505050506001600160a01b038516600090815260046020526040812080546001600160a01b03191681556001810180546001600160a81b03191690559293509050610be76002830182611b06565b50507f11c7a622ec67c6f83214ecc3eece19ff735936abe54516f790790e34b69be34981604051610c189190611e0b565b60405180910390a192915050565b6060600033600090815260066020526040902060010154600160a01b900460ff166003811115610c5857610c58611bf3565b03610c755760405162461bcd60e51b81526004016102b290612191565b600060095467ffffffffffffffff811115610c9257610c92611f77565b604051908082528060200260200182016040528015610ccb57816020015b610cb8611b40565b815260200190600190039081610cb05790505b50905060015b60095481116104925760008181526007602052604090819020815160e08101909252805482908290610d02906121ce565b80601f0160208091040260200160405190810160405280929190818152602001828054610d2e906121ce565b8015610d7b5780601f10610d5057610100808354040283529160200191610d7b565b820191906000526020600020905b815481529060010190602001808311610d5e57829003601f168201915b505050918352505060018201546001600160a01b03166020820152600282018054604090920191610dab906121ce565b80601f0160208091040260200160405190810160405280929190818152602001828054610dd7906121ce565b8015610e245780601f10610df957610100808354040283529160200191610e24565b820191906000526020600020905b815481529060010190602001808311610e0757829003601f168201915b5050509183525050600382015463ffffffff808216602080850191909152640100000000909204166040808401919091526004840180548251818502810185019093528083526060909401939192909190830182828015610eae57602002820191906000526020600020905b81546001600160a01b03168152600190910190602001808311610e90575b5050509183525050600582015460209091019060ff166002811115610ed557610ed5611bf3565b6002811115610ee657610ee6611bf3565b90525082610ef5600184612237565b81518110610f0557610f056121b8565b60200260200101819052508080610f1b9061221e565b915050610cd1565b60018054610f30906121ce565b80601f0160208091040260200160405190810160405280929190818152602001828054610f5c906121ce565b8015610fa95780601f10610f7e57610100808354040283529160200191610fa9565b820191906000526020600020905b815481529060010190602001808311610f8c57829003601f168201915b505050505081565b6002546001600160a01b031633146110045760405162461bcd60e51b8152602060048201526016602482015275596f7520617265206e6f7420746865204f776e65722160501b60448201526064016102b2565b600a805463ffffffff191663ffffffff9390931692909217909155600b55565b600980549060006110348361221e565b9190505550611041611b40565b8281526001600160a01b0384166020808301919091526040808301849052600060608401819052608084018190526009548152600790925290208151829190819061108c90826123b6565b5060208201516001820180546001600160a01b0319166001600160a01b03909216919091179055604082015160028201906110c790826123b6565b506060820151600382018054608085015163ffffffff9081166401000000000267ffffffffffffffff1990921693169290921791909117905560a0820151805161111b916004840191602090910190611b79565b5060c082015160058201805460ff1916600183600281111561113f5761113f611bf3565b02179055505060098054600090815260086020908152604080832080546001810182559084529282902090920180546001600160a01b0319166001600160a01b038a1617905591548151308152928301527f8dfa4a39b973cacc42c5d14d9461d66fd1fda5ea696f7d2a3c44fd9d7f11d04f92500160405180910390a16111c96009546001611603565b50505050565b600333600090815260066020526040902060010154600160a01b900460ff1660038111156111ff576111ff611bf3565b1461125a5760405162461bcd60e51b815260206004820152602560248201527f596f7520646f206e6f742068617665207065726d697373696f6e20746f20696e604482015264766974652160d81b60648201526084016102b2565b604051630a83312960e21b815283906001600160a01b03821690632a0cc4a49061128d9030906001908890600401612470565b600060405180830381600087803b1580156112a757600080fd5b505af11580156112bb573d6000803e3d6000fd5b505050506040518060800160405280866001600160a01b03168152602001856001600160a01b031681526020018460038111156112fa576112fa611bf3565b815260209081018490526001600160a01b03808816600090815260048352604090819020845181549084166001600160a01b03199182161782559385015160018201805491909416948116851784559185015190939092916001600160a81b03191617600160a01b83600381111561137457611374611bf3565b02179055506060820151600282019061138d90826123b6565b5050505050505050565b61139f611b40565b600033600090815260066020526040902060010154600160a01b900460ff1660038111156113cf576113cf611bf3565b036113ec5760405162461bcd60e51b81526004016102b290612191565b60008281526007602052604090819020815160e08101909252805482908290611414906121ce565b80601f0160208091040260200160405190810160405280929190818152602001828054611440906121ce565b801561148d5780601f106114625761010080835404028352916020019161148d565b820191906000526020600020905b81548152906001019060200180831161147057829003601f168201915b505050918352505060018201546001600160a01b031660208201526002820180546040909201916114bd906121ce565b80601f01602080910402602001604051908101604052809291908181526020018280546114e9906121ce565b80156115365780601f1061150b57610100808354040283529160200191611536565b820191906000526020600020905b81548152906001019060200180831161151957829003601f168201915b5050509183525050600382015463ffffffff8082166020808501919091526401000000009092041660408084019190915260048401805482518185028101850190935280835260609094019391929091908301828280156115c057602002820191906000526020600020905b81546001600160a01b031681526001909101906020018083116115a2575b5050509183525050600582015460209091019060ff1660028111156115e7576115e7611bf3565b60028111156115f8576115f8611bf3565b90525090505b919050565b600033600090815260066020526040902060010154600160a01b900460ff16600381111561163357611633611bf3565b036116505760405162461bcd60e51b81526004016102b290612191565b600233600090815260066020526040902060010154600160a01b900460ff16600381111561168057611680611bf3565b14806116b95750600333600090815260066020526040902060010154600160a01b900460ff1660038111156116b7576116b7611bf3565b145b6116f85760405162461bcd60e51b815260206004820152601060248201526f4e6f20766f74696e672072696768747360801b60448201526064016102b2565b60005b600083815260086020526040902054811015611798576000838152600860205260409020805433919083908110611734576117346121b8565b6000918252602090912001546001600160a01b0316036117865760405162461bcd60e51b815260206004820152600d60248201526c105b1c9958591e481d9bdd1959609a1b60448201526064016102b2565b806117908161221e565b9150506116fb565b5080156118755760008281526007602052604081206003018054600192906117c790849063ffffffff1661251b565b82546101009290920a63ffffffff818102199093169183160217909155600c54600b5460008681526007602052604081206003015490945061ffff90921692611810921661253f565b61181a9190612556565b600a5490915063ffffffff168111156107dc57600083815260076020526040808220600501805460ff191660011790555184917fd24c2047577899547bacebb29e319fc7d73f6712b5adb401d45556f34bb2aa3b91a2505050565b60008281526007602052604090206003018054600191906004906118a8908490640100000000900463ffffffff1661251b565b82546101009290920a63ffffffff818102199093169183160217909155600c54600b5460008681526007602052604081206003015490945061ffff909216926118f99264010000000090041661253f565b6119039190612556565b600a54600b5491925061191e9163ffffffff90911690612237565b8111156107dc57600083815260076020526040808220600501805460ff191660021790555184917fd92fba445edb3153b571e6df782d7a66fd0ce668519273670820ee3a86da0ef491a2505050565b6060600081818033600090815260066020526040902060010154600160a01b900460ff1660038111156119a2576119a2611bf3565b036119bf5760405162461bcd60e51b81526004016102b290612191565b600254600a546001805490926001600160a01b03169160039163ffffffff9091169084906119ec906121ce565b80601f0160208091040260200160405190810160405280929190818152602001828054611a18906121ce565b8015611a655780601f10611a3a57610100808354040283529160200191611a65565b820191906000526020600020905b815481529060010190602001808311611a4857829003601f168201915b50505050509350818054611a78906121ce565b80601f0160208091040260200160405190810160405280929190818152602001828054611aa4906121ce565b8015611af15780601f10611ac657610100808354040283529160200191611af1565b820191906000526020600020905b815481529060010190602001808311611ad457829003601f168201915b50505050509150935093509350935090919293565b508054611b12906121ce565b6000825580601f10611b22575050565b601f0160209004906000526020600020908101906107df9190611bde565b6040805160e08101825260608082526000602083018190529282018190528082018390526080820183905260a08201529060c082015290565b828054828255906000526020600020908101928215611bce579160200282015b82811115611bce57825182546001600160a01b0319166001600160a01b03909116178255602090920191600190910190611b99565b50611bda929150611bde565b5090565b5b80821115611bda5760008155600101611bdf565b634e487b7160e01b600052602160045260246000fd5b60048110611c1957611c19611bf3565b9052565b6000815180845260005b81811015611c4357602081850181015186830182015201611c27565b506000602082860101526020601f19601f83011685010191505092915050565b60006020808301818452808551808352604092508286019150828160051b87010184880160005b83811015611cf557888303603f19018552815180516001600160a01b03908116855288820151168885015286810151608090611cc889870182611c09565b50606091820151918501819052611ce185820183611c1d565b968901969450505090860190600101611c8a565b509098975050505050505050565b600060208284031215611d1557600080fd5b5035919050565b60038110611c1957611c19611bf3565b60c081526000611d3f60c0830189611c1d565b6001600160a01b03881660208401528281036040840152611d608188611c1d565b63ffffffff8781166060860152861660808501529150611d85905060a0830184611d1c565b979650505050505050565b80356001600160a01b03811681146115fe57600080fd5b600060208284031215611db957600080fd5b611dc282611d90565b9392505050565b8035600481106115fe57600080fd5b60008060408385031215611deb57600080fd5b611df483611d90565b9150611e0260208401611dc9565b90509250929050565b602081526000611dc26020830184611c1d565b6000815160e08452611e3360e0850182611c1d565b905060208084015160018060a01b0380821683880152604086015191508684036040880152611e628483611c1d565b93506060860151915063ffffffff80831660608901528060808801511660808901525060a0860151915086840360a088015283825180865284860191508484019550600093505b80841015611ecb57855183168252948401946001939093019290840190611ea9565b5060c08701519450611d8560c0890186611d1c565b6000602080830181845280855180835260408601915060408160051b870101925083870160005b82811015611f3557603f19888603018452611f23858351611e1e565b94509285019290850190600101611f07565b5092979650505050505050565b60008060408385031215611f5557600080fd5b823563ffffffff81168114611f6957600080fd5b946020939093013593505050565b634e487b7160e01b600052604160045260246000fd5b600082601f830112611f9e57600080fd5b813567ffffffffffffffff80821115611fb957611fb9611f77565b604051601f8301601f19908116603f01168101908282118183101715611fe157611fe1611f77565b81604052838152866020858801011115611ffa57600080fd5b836020870160208301376000602085830101528094505050505092915050565b60008060006060848603121561202f57600080fd5b61203884611d90565b9250602084013567ffffffffffffffff8082111561205557600080fd5b61206187838801611f8d565b9350604086013591508082111561207757600080fd5b5061208486828701611f8d565b9150509250925092565b600080600080608085870312156120a457600080fd5b6120ad85611d90565b93506120bb60208601611d90565b92506120c960408601611dc9565b9150606085013567ffffffffffffffff8111156120e557600080fd5b6120f187828801611f8d565b91505092959194509250565b602081526000611dc26020830184611e1e565b6000806040838503121561212357600080fd5b823591506020830135801515811461213a57600080fd5b809150509250929050565b6080815260006121586080830187611c1d565b6001600160a01b038616602084015282810360408401526121798186611c1d565b91505063ffffffff8316606083015295945050505050565b6020808252600d908201526c4e6f742061206d656d6265722160981b604082015260600190565b634e487b7160e01b600052603260045260246000fd5b600181811c908216806121e257607f821691505b60208210810361220257634e487b7160e01b600052602260045260246000fd5b50919050565b634e487b7160e01b600052601160045260246000fd5b60006001820161223057612230612208565b5060010190565b8181038181111561224a5761224a612208565b92915050565b634e487b7160e01b600052603160045260246000fd5b601f8211156107dc57600081815260208120601f850160051c8101602086101561228d5750805b601f850160051c820191505b818110156122ac57828155600101612299565b505050505050565b8181036122bf575050565b6122c982546121ce565b67ffffffffffffffff8111156122e1576122e1611f77565b6122f5816122ef84546121ce565b84612266565b6000601f82116001811461232957600083156123115750848201545b600019600385901b1c1916600184901b17845561238e565b600085815260209020601f19841690600086815260209020845b838110156123635782860154825560019586019590910190602001612343565b50858310156123815781850154600019600388901b60f8161c191681555b50505060018360011b0184555b5050505050565b600061ffff8083168181036123ac576123ac612208565b6001019392505050565b815167ffffffffffffffff8111156123d0576123d0611f77565b6123de816122ef84546121ce565b602080601f83116001811461241357600084156123fb5750858301515b600019600386901b1c1916600185901b1785556122ac565b600085815260208120601f198616915b8281101561244257888601518255948401946001909101908401612423565b50858210156124605787850151600019600388901b60f8161c191681555b5050505050600190811b01905550565b60018060a01b03841681526000602060608184015260008554612492816121ce565b80606087015260806001808416600081146124b457600181146124ce576124fc565b60ff1985168984015283151560051b8901830195506124fc565b8a6000528660002060005b858110156124f45781548b82018601529083019088016124d9565b8a0184019650505b505050505080925050506125136040830184611c09565b949350505050565b63ffffffff81811683821601908082111561253857612538612208565b5092915050565b808202811582820484141761224a5761224a612208565b60008261257357634e487b7160e01b600052601260045260246000fd5b50049056fea2646970667358221220b8f54c5ca586c22aa985bf8f1fa0fea9de9003734736011fa7412766c4ad2e1064736f6c63430008130033a2646970667358221220c2d9d28bf58d7a0846e17b45f459377f4c0661bf9701b7cec4f6b0301a8ca34864736f6c63430008130033",
    "sourcePath": "/media/rv/Store Room/Main_Project/contract_env_v1/contracts/User.sol",
    "compiler": {
        "name": "solc",
        "version": "0.8.19+commit.7dd6d404"
    },
    "functionHashes": {
        "acceptInvite(address)": "dbdb5563",
        "addGroupInvite(address,string,uint8)": "2a0cc4a4",
        "createGroup(string,uint32,uint256,string,string)": "695c3aea",
        "fileAppAddress()": "6472100e",
        "getGroupInvites()": "d436fcb0",
        "getGroups()": "c72b5176",
        "groups(uint256)": "96324bd4",
        "ipfsId()": "e9896cae",
        "leaveApp()": "43f6f352",
        "leaveGroup(address)": "eb2bd4fd",
        "owner()": "8da5cb5b",
        "propose(address,string,string)": "5350ada8",
        "publicKey()": "63ffab31",
        "rejectInvite(address)": "14a61234",
        "username()": "61fac54d"
    },
    "gasEstimates": {
        "creation": {
            "codeDepositCost": "3380200",
            "executionCost": "infinite",
            "totalCost": "infinite"
        },
        "external": {
            "acceptInvite(address)": "infinite",
            "addGroupInvite(address,string,uint8)": "infinite",
            "createGroup(string,uint32,uint256,string,string)": "infinite",
            "fileAppAddress()": "2426",
            "getGroupInvites()": "infinite",
            "getGroups()": "infinite",
            "groups(uint256)": "4681",
            "ipfsId()": "infinite",
            "leaveApp()": "2504",
            "leaveGroup(address)": "infinite",
            "owner()": "2382",
            "propose(address,string,string)": "infinite",
            "publicKey()": "infinite",
            "rejectInvite(address)": "infinite",
            "username()": "infinite"
        }
    }
}